{
  "contractName": "TxOriginVictim",
  "abi": [
    {
      "constant": false,
      "inputs": [
        {
          "name": "to",
          "type": "address"
        },
        {
          "name": "amount",
          "type": "uint256"
        }
      ],
      "name": "transferTo",
      "outputs": [],
      "payable": false,
      "stateMutability": "nonpayable",
      "type": "function"
    },
    {
      "inputs": [],
      "payable": false,
      "stateMutability": "nonpayable",
      "type": "constructor"
    }
  ],
  "bytecode": "0x6060604052341561000f57600080fd5b336000806101000a81548173ffffffffffffffffffffffffffffffffffffffff021916908373ffffffffffffffffffffffffffffffffffffffff1602179055506101538061005e6000396000f300606060405260043610610041576000357c0100000000000000000000000000000000000000000000000000000000900463ffffffff1680632ccb1b3014610046575b600080fd5b341561005157600080fd5b610086600480803573ffffffffffffffffffffffffffffffffffffffff16906020019091908035906020019091905050610088565b005b6000809054906101000a900473ffffffffffffffffffffffffffffffffffffffff1673ffffffffffffffffffffffffffffffffffffffff163273ffffffffffffffffffffffffffffffffffffffff161415156100e357600080fd5b8173ffffffffffffffffffffffffffffffffffffffff166108fc829081150290604051600060405180830381858888f19350505050151561012357600080fd5b50505600a165627a7a72305820eb187d50ab414ef7d1805a15221af710b611acc1d4bc481336288a6541cfc7ff0029",
  "source": "pragma solidity ^0.4.18;\n\ncontract TxOriginVictim {\n  address owner;\n\n  function TxOriginVictim() {\n    owner = msg.sender;\n  }\n\n  function transferTo(address to, uint amount) public {\n    require(tx.origin == owner);\n    to.transfer(amount);\n  }\n}\n",
  "sourcePath": "/Users/christophercoverdale/Desktop/Projects/smart-contract-auditor/truffle/code/contracts/tx-origin-attacks/TxOriginVictim.sol",
  "compiler": {
    "name": "solc",
    "version": "0.4.18+commit.9cf6e910.Emscripten.clang"
  },
  "schemaVersion": "1.0.1",
  "updatedAt": "2018-03-31T17:15:48.286Z"
}